S00F00004279676765726E2E7372656347
S11300000C9438000C9455000C9455000C94550035
S11300100C9455000C9455000C9455000C94550008
S11300200C9455000C9455000C9455000C945500F8
S11300300C9455000C9455000C9455000C945500E8
S11300400C9455000C9455000C9455000C945500D8
S11300500C9455000C9455000C9455000C945500C8
S11300600C9455000C9455000C9455000C945500B8
S113007011241FBECFEFD4E0DEBFCDBF11E0A0E05E
S1130080B1E0E0E9FCE002C005900D92A638B107AA
S1130090D9F721E0A6E8B1E001C01D92A039B2076A
S11300A0E1F70E9457000C9446060C94000020E8E7
S11300B035E240E050E060E873EF8AE490E00E94AB
S11300C078000E9474008AE091E09F938F930E94CD
S11300D0CB01BA9AC29A0F900F90C4E00E94B50067
S11300E088B38C2788BBFACF85B7806885BF08950D
S11300F00F931F9389019A01000F111F221F331FB1
S1130100000F111F221F331FA9019801220F331F53
S1130110441F551F220F331F441F551F0E94000107
S1130120DA01C9010197A109B109492F5A2F6B2F8F
S1130130772740BD89B988E18AB98EE880BD60E03F
S113014070E080EB90E00E9480019093890180939D
S113015088011F910F9108955D9BFECF8CB908957E
S11301600E94AC0080E090E00895EF92FF920F931C
S11301701F93CF93DF9388E191E00E94DF010E94F7
S113018070017C010E947501C0E0D8E100E010E03C
S11301900E94700188839881981711F00F5F1F4F98
S11301A02196C11580E2D80799F7C7010E9475010D
S11301B0C0E0D8E1E12CF12C0E94700198819817DD
S11301C019F08FEFE81AF80A2196C11580E2D807D2
S11301D099F7FF92EF921F930F938EE291E09F9312
S11301E08F930E94CB010F900F900F900F900F9060
S11301F00F90DF91CF911F910F91FF90EF90089591
S1130200A1E21A2EAA1BBB1BFD010DC0AA1FBB1F16
S1130210EE1FFF1FA217B307E407F50720F0A21B88
S1130220B30BE40BF50B661F771F881F991F1A94F5
S113023069F760957095809590959B01AC01BD011F
S1130240CF0108958F929F92AF92BF92CF92DF9287
S1130250EF92FF92CF93DF93EC01688179818A81D9
S11302609B81611571058105910521F464E279EDA5
S11302708BE597E02DE133EF41E050E00E94CE059D
S113028049015A019B01AC01A7EAB1E40E94ED05C2
S11302906B017C01ACEEB4EFA50194010E94FB0557
S11302A0C60ED71EE81EF91EF7FE06C081E0C81A66
S11302B0D108E10880E8F80AC882D982EA82FB8280
S11302C0C6019F77DF91CF91FF90EF90DF90CF90A1
S11302D0BF90AF909F908F9008950E94220108953F
S11302E080E091E00E9422010895A0E0B0E08093B4
S11302F0000190930101A0930201B09303010895BA
S11303000F931F93CF93DF93EC018B01009731F48C
S11303106115710519F480E090E038C06EE070E07A
S113032081E090E00E94DE03FC010097A1F380E8E5
S113033083830115110571F01387028781E8838394
S11303408091860190918701892B21F4F093870194
S1130350E09386012097C9F0D187C08783818260AA
S113036083838091880190918901892B71F4F093A2
S11303708901E093880180918A0190918B01892BF6
S113038021F4F0938B01E0938A01CF01DF91CF91A7
S11303901F910F910895A0E0B0E0E1EDF1E00C941D
S11303A01006FE01359661917191AF01809188012B
S11303B0909189010E940C02E2E00C942C060F93A8
S11303C01F93CF93DF93E0918801F09189012381FA
S11303D021FF1BC0EC0100E010E0899160918801CD
S11303E070918901DB011896ED91FC91199788238E
S11303F031F00995892B89F30FEF1FEFEECF8AE0D7
S11304000995892B11F4C80102C08FEF9FEFDF918A
S1130410CF911F910F910895ACE0B0E0E2E1F2E0DA
S11304200C9400067C016B018A01FC011782168280
S1130430838181FFBDC1CE0101964C01F7019381F7
S1130440F60193FD859193FF81916F01882309F44F
S1130450ABC1853239F493FD859193FF81916F018E
S1130460853229F4B70190E00E943E05E7CF512C74
S1130470312C20E02032A0F48B3269F030F4803249
S113048059F0833269F420612CC08D3239F0803305
S113049039F4216026C02260246023C0286021C072
S11304A027FD27C030ED380F3A3078F426FF06C018
S11304B0FAE05F9E300D1124532E13C08AE0389E5B
S11304C0300D1124332E20620CC08E3221F426FD0F
S11304D06BC1206406C08C3611F4206802C08836D3
S11304E041F4F60193FD859193FF81916F01811190
S11304F0C1CF982F9F7D9554933028F40C5F1F4FE4
S1130500FFE3F9830DC0833631F0833771F083350F
S113051009F05BC022C0F801808189830E5F1F4F00
S113052044244394512C540115C03801F2E06F0E59
S1130530711CF801A080B18026FF03C0652D70E016
S113054002C06FEF7FEFC5012C870E9433052C0199
S113055083012C852F77222E17C03801F2E06F0E0D
S1130560711CF801A080B18026FF03C0652D70E0E6
S113057002C06FEF7FEFC5012C870E9421052C017B
S11305802C852068222E830123FC1BC0832D90E040
S113059048165906B0F4B70180E290E00E943E0587
S11305A03A94F4CFF50127FC859127FE81915F01F0
S11305B0B70190E00E943E0531103A94F1E04F1AE1
S11305C051084114510471F7E5C0843611F089369D
S11305D039F5F80127FF07C0608171818281938119
S11305E00C5F1F4F08C060817181882777FD80955B
S11305F0982F0E5F1F4F2F76B22E97FF09C090954C
S11306008095709561957F4F8F4F9F4F2068B22ED4
S11306102AE030E0A4010E947005A82EA81844C066
S1130620853729F42F7EB22E2AE030E025C0F22F40
S1130630F97FBF2E8F36C1F018F4883579F0B4C035
S1130640803719F0883721F0AFC02F2F2061B22EE8
S1130650B4FE0DC08B2D8460B82E09C024FF0AC0DF
S11306609F2F9660B92E06C028E030E005C020E137
S113067030E002C020E132E0F801B7FE07C060813B
S11306807181828193810C5F1F4F06C060817181EB
S113069080E090E00E5F1F4FA4010E947005A82E19
S11306A0A818FB2DFF77BF2EB6FE0BC02B2D2E7F77
S11306B0A51450F4B4FE0AC0B2FC08C02B2D2E7E43
S11306C005C07A2C2B2D03C07A2C01C0752C24FF75
S11306D00DC0FE01EA0DF11D8081803311F4297EE5
S11306E009C022FF06C07394739404C0822F8678D5
S11306F009F0739423FD13C020FF06C05A2C731411
S113070018F4530C5718732C731468F4B70180E26F
S113071090E02C870E943E0573942C85F5CF7314CA
S113072010F4371801C0312C24FF12C0B70180E344
S113073090E02C870E943E052C8522FF17C021FFE4
S113074003C088E590E002C088E790E0B7010CC0E0
S1130750822F867859F021FD02C080E201C08BE22D
S113076027FD8DE2B70190E00E943E05A51438F400
S1130770B70180E390E00E943E055A94F7CFAA9413
S1130780F401EA0DF11D8081B70190E00E943E055D
S1130790A110F5CF332009F451CEB70180E290E0E7
S11307A00E943E053A94F6CFF7018681978102C0F4
S11307B08FEF9FEF2C96E2E10C941C060F931F938E
S11307C0CF93DF93869F8001879F100D969F100D16
S11307D01124C8010E94FA03EC01009729F0A80132
S11307E060E070E00E942C05CE01DF91CF911F9153
S11307F00F910895CF93DF938230910510F482E036
S113080090E0E0918E01F0918F0120E030E0A0E0D3
S1130810B0E0309739F14081518148175907B8F059
S11308204817590771F482819381109729F0139620
S11308309C938E9312972CC090938F0180938E017A
S113084027C02115310531F04217530718F0A901CB
S1130850DB0101C0EF019A01BD01DF010280F381D8
S1130860E02DD7CF21153105F9F0281B390B2430A1
S1130870310580F48A819B816115710521F0FB01AA
S11308809383828304C090938F0180938E01FE0131
S1130890329644C0FE01E20FF31F819391932250DC
S11308A03109398328833AC020918C0130918D011C
S11308B0232B41F4209106013091070130938D01DF
S11308C020938C01209104013091050121153105FB
S11308D041F42DB73EB74091080150910901241B02
S11308E0350BE0918C01F0918D01E217F307A0F430
S11308F02E1B3F0B2817390778F0AC014E5F5F4F72
S11309002417350748F04E0F5F1F50938D01409315
S11309108C018193919302C0E0E0F0E0CF01DF917C
S1130920CF910895CF93DF93009709F487C0FC011A
S1130930329713821282C0918E01D0918F01209739
S113094081F420813181280F391F80918C0190918D
S11309508D018217930779F5F0938D01E0938C0153
S11309606DC0DE0120E030E0AE17BF0750F41296F0
S11309704D915C9113979D014115510509F1DA01DF
S1130980F3CFB383A28340815181840F951F8A17CB
S11309909B0771F48D919C911197840F951F02967A
S11309A09183808312968D919C9113979383828374
S11309B02115310529F4F0938F01E0938E013EC097
S11309C0D9011396FC93EE9312974D915D91A40F68
S11309D0B51FEA17FB0779F480819181840F951F75
S11309E00296D90111969C938E93828193811396DA
S11309F09C938E931297E0E0F0E08A819B810097AC
S1130A0019F0FE01EC01F9CFCE010296288139815B
S1130A10820F931F20918C0130918D012817390783
S1130A2069F4309729F410928F0110928E0102C05C
S1130A3013821282D0938D01C0938C01DF91CF91E8
S1130A400895FC010590615070400110D8F780951D
S1130A5090958E0F9F1F0895DC0101C06D93415046
S1130A605040E0F70895FC0161507040019001107E
S1130A70D8F7809590958E0F9F1F08950F931F931D
S1130A80CF93DF93182F092FEB018B8181FD03C0D6
S1130A908FEF9FEF20C082FF10C04E815F812C81B9
S1130AA03D81421753077CF4E881F9819F012F5F50
S1130AB03F4F39832883108306C0E885F985812F49
S1130AC00995892B29F72E813F812F5F3F4F3F8363
S1130AD02E83812F902FDF91CF911F910F91089535
S1130AE0FA01AA27283051F1203181F1E8946F935B
S1130AF06E7F6E5F7F4F8F4F9F4FAF4FB1E03ED001
S1130B00B4E03CD0670F781F891F9A1FA11D680F9E
S1130B10791F8A1F911DA11D6A0F711D811D911DD1
S1130B20A11D20D009F468943F912AE0269F112446
S1130B303019305D3193DEF6CF010895462F4770AA
S1130B40405D4193B3E00FD0C9F7F6CF462F4F7005
S1130B50405D4A3318F0495D31FD4052419302D063
S1130B60A9F7EACFB4E0A695979587957795679509
S1130B70BA95C9F700976105710508959B01AC0109
S1130B800A2E06945795479537952795BA95C9F730
S1130B90620F731F841F951FA01D0895052E97FBD8
S1130BA01EF400940E94E50557FD07D00E94000141
S1130BB007FC03D04EF40C94E50550954095309510
S1130BC021953F4F4F4F5F4F0895909580957095B5
S1130BD061957F4F8F4F9F4F08950E943706A59FC1
S1130BE0900DB49F900DA49F800D911D1124089524
S1130BF0B7FF0C94ED050E94ED05821B930B08953D
S1130C002F923F924F925F926F927F928F929F9218
S1130C10AF92BF92CF92DF92EF92FF920F931F9306
S1130C20CF93DF93CDB7DEB7CA1BDB0B0FB6F894B7
S1130C30DEBF0FBECDBF09942A88398848885F84F7
S1130C406E847D848C849B84AA84B984C884DF8068
S1130C50EE80FD800C811B81AA81B981CE0FD11D4C
S1130C600FB6F894DEBF0FBECDBFED010895A29F6D
S1130C70B001B39FC001A39F700D811D1124911D6C
S1130C80B29F700D811D1124911D0895F894FFCF1A
S1130C900100000000009001200050726F67726133
S1130CA06D205374617274005374617274696E6759
S1130CB0205352414D20746573742E2E2E005352CE
S1130CC0414D207465737420636F6D706C65746539
S1130CD06420776974680A253464206572726F72BF
S1130CE07320696E2077726974652070686173651A
S1130CF020616E640A253464206572726F72730910
S1130D00696E2072657472696576616C20706861C1
S1090D1073650A0A0000ED
S9030000FC
