:100000000C9438000C9455000C9455000C94550039
:100010000C9455000C9455000C9455000C9455000C
:100020000C9455000C9455000C9455000C945500FC
:100030000C9455000C9455000C9455000C945500EC
:100040000C9455000C9455000C9455000C945500DC
:100050000C9455000C9455000C9455000C945500CC
:100060000C9455000C9455000C9455000C945500BC
:1000700011241FBECFEFD4E0DEBFCDBF14E0A0E05F
:10008000B1E0E0E4F5E102C005900D92A438B107BB
:10009000D9F724E0A4E8B4E001C01D92A839B20762
:1000A000E1F70E9457000C949E0A0C940000CF9335
:1000B000DF93CDB7DEB72A970FB6F894DEBF0FBE39
:1000C000CDBF20E835E240E050E060E873EF8AE41D
:1000D00090E00E943B0481E094E00E9446060E946A
:1000E00063030E9484010E9495020E94FE038AE03D
:1000F00090E00E943F06BA9A80E291E00E94460694
:100100008AE0E6E1F1E0DE01119601900D928A9518
:10011000E1F708E311E00F2EF1E44F2EF1E05F2E3E
:10012000F02D0F2EFAE46F2EF1E07F2EF02D0F2E22
:10013000FEE48F2EF1E09F2EF02DC12CB12CFF2478
:10014000FA94DC2CEB2C81E00E949701A82E80E031
:100150000E9497011F92AF921F928F931F930F934C
:100160000E942B0683E00E943203A82E82E00E94A8
:1001700032031F92AF921F928F931F930F930E948F
:100180002B0685E00E944303A82E84E00E944303CF
:100190001F92AF921F928F935F924F920E942B06F5
:1001A0000E94FD02E82FF0E0EE0FFF1F81E090E0DB
:1001B0008C0F9D1FE80FF91F81818F9380818F9392
:1001C0007F926F920E942B060E94D3029F938F937F
:1001D0007F936F939F928F920E942B060FB6F89495
:1001E000DEBF0FBECDBFEC2DFB2D1FC0AC01460FF7
:1001F000571F4932510544F0A0918404B091850401
:10020000A20FB31FFC9207C0A0918404B091850493
:10021000A20FB31F1C92019620583F4F88309105C2
:1002200029F73196E038F10529F0BF019F018D2DA6
:100230009E2DDCCF0E940F0498B384E0892788BBF1
:1002400082CF8460E0910A01F0910B0180830895D0
:100250000E94210181E48A95F1F700C0E0910A0132
:10026000F0910B0180810895EF92FF920F931F93FD
:10027000CF93DF9381E691E00E94460680E00E94E2
:100280002801F82EC4E6D0E0E12C00E010E080E088
:100290000E942801080F111DF81201C0E394219754
:1002A000209711F0F82EF3CF1F930F9385E791E07D
:1002B0009F938F930E942B061F92EF928FE891E0FD
:1002C0009F938F930E942B068DB79EB708960FB60B
:1002D000F8949EBF0FBE8DBF9FE59E1518F00530A8
:1002E000110530F486EB91E00E94460680E005C0DF
:1002F00087EC91E00E94460681E0DF91CF911F914B
:100300000F91FF90EF90089588ED91E00E944606CE
:100310008D980E943401813029F48CEE91E00E9486
:10032000460608958DEF91E00E9446060895CF930A
:10033000C82F0E942801C11123C02FEF829FC00146
:1003400011246FEF70E00E9429059B013327409133
:100350008C0450E08FE790E0841B950BE1E02817B8
:1003600039070CF0E0E0E11109C041585F4F81E02E
:10037000421753070CF080E0882329F1862F26C00E
:100380002FEF829FC00111246FEF70E00E942905BA
:100390009B01332740918D0450E08FE790E0841B50
:1003A000950BE1E0281739070CF0E0E0E11109C0F6
:1003B00041585F4F81E0421753070CF080E08823DB
:1003C00021F0862F03C08FE701C08FE7CF910895FA
:1003D000DF92EF92FF920F931F93CF93DF93F82E4C
:1003E000C2E3D0E00F2EFFE7EF2EF02D0F2EFFE738
:1003F000DF2EF02D00E010E08F2D0E942801080F65
:10040000111DD81608F4D82E8E1508F4E82E87EFA3
:100410009FE20197F1F700C000002197209761F754
:10042000980136952795ABE7B4E10E945F05969554
:100430008795C1E8C80F4D2D50E04F5751099A01DB
:10044000552324F422273327241B350BA9016E2DB5
:1004500070E06F5771099B01772324F4222733271B
:10046000261B370B2417350714F4D42F01C0D22FC5
:10047000F11025C0C0938A040CE814E0F801D08381
:100480008C2F992787FD90959F93CF938CE192E0D5
:100490009F938F930E942B06F80180811F928F9368
:1004A0006AE272E07F936F930E942B068DB79EB72E
:1004B00008960FB6F8949EBF0FBE8DBF24C0C093A0
:1004C0008B040DE814E0F801D0836C2F772767FDCB
:1004D00070957F93CF936AE372E07F936F930E944E
:1004E0002B06F80180811F928F9368E472E07F935E
:1004F0006F930E942B068DB79EB708960FB6F8949F
:100500009EBF0FBE8DBF8C2F992787FD9095992395
:100510001CF49195819591098D0FDF91CF911F91D9
:100520000F91FF90EF90DF900895CF93DF9388E5D0
:1005300092E00E944606109287049FEF90938604F3
:1005400010928A0485E080938C0410928904909321
:10055000880410928B0480938D0480E00E94E8014F
:10056000C82F81E00E94E801D82FC031B0F080E7A9
:1005700092E00E944606D03120F08BEA92E00E9481
:10058000460686EE92E00E9446060E94950208C04A
:1005900081E193E00E94460603C08031C8F3EDCFAD
:1005A000DF91CF9108950F931F93CF9380E00E9426
:1005B0009701182F81E00E949701C82F45E6419FBF
:1005C000C0011124EFEFF0E0BF010E942905625342
:1005D00071098B01000F111F4C9FC0011124BF0135
:1005E0000E942905625371099B01220F331FC90123
:1005F000B801CF911F910F910895CF93DF9380E0C1
:100600000E949701C82FD0E0CF57D10981E00E9406
:10061000970190E08F579109209711F40097E1F02E
:10062000AC01992324F444275527481B590B9E01FC
:10063000DD2324F4222733272C1B3D0B24173507F9
:100640002CF41816190654F482E009C081E01C1637
:100650001D062CF080E003C084E001C083E0DF9140
:10066000CF9108959EEF980F923050F086E293E07C
:100670009F938F930E942B060F900F9080E0089518
:100680000E94280108959CEF980F923050F08DE45D
:1006900093E09F938F930E942B060F900F9080E022
:1006A0000895843019F0853039F00BC0BB9886B3BB
:1006B00083FB882780F90895BC9886B38295817062
:1006C000089580E008958AE793E00E94460685B782
:1006D000806885BF80B7806280BF0E947804892BC4
:1006E00029F48AE993E00E944606089587EB93E097
:1006F0000E9446060895E0910E01F0910F018EEAE6
:100700008083E0910E01F0910F0181EA8083E091F6
:100710000E01F0910F018AED8083E0910E01F091BE
:100720000F0182E18083E0910E01F0910F0188ECCE
:100730008083E0910E01F0910F0188EA8083E091BF
:100740000E01F0910F018FE38083E0910E01F09193
:100750000F0185ED8083E0910E01F0910F0180E89B
:100760008083E0910E01F0910F0181E88083E09198
:100770000E01F0910F0180E58083E0910E01F09170
:100780000F0189ED8083E0910E01F0910F0181E26C
:100790008083E0910E01F0910F0180E28083E0916F
:1007A0000E01F0910F011082E0910E01F0910F0106
:1007B0008BED8083E0910E01F0910F0180E3808347
:1007C000E0910E01F0910F018DEA8083E0910E011E
:1007D000F0910F011082E0910E01F0910F0184EA77
:1007E0008083E0910E01F0910F0186EA8083E09111
:1007F0000E01F0910F018FEA808308950E947B0320
:100800008091840490918504892B41F480E094E0E8
:100810000E940C059093850480938404089580E0E1
:1008200090E0E0910C01F0910D01E80FF91FA0910B
:100830008404B0918504A80FB91F2C9120830196E0
:10084000811522E0920769F780E090E0E0910C01C9
:10085000F0910D01E80FF91FA0918404B091850477
:10086000A80FB91FBE5F2C9120830196811522E04D
:10087000920761F708950F931F9389019A01000F62
:10088000111F221F331F000F111F221F331FA90129
:100890009801220F331F441F551F220F331F441F7F
:1008A000551F0E943D05DA01C9010197A109B1094F
:1008B000492F5A2F6B2F772740BD89B988E18AB914
:1008C0008EE880BD60E070E083E794E00E94E00580
:1008D00090939104809390041F910F9108955D9BD4
:1008E000FECF8CB908950E946F0480E090E00895D7
:1008F0006F927F928F929F92AF92BF92CF92DF9230
:10090000EF92FF920F931F93CF93DF9388E08F9323
:100910001F9282EE93E09F938F930E942B060E947A
:10092000D0056C010E94D5050F900F900F900F908D
:1009300000E010E0E12CF12C812C912CC0E0D0E003
:100940000E94D005F801F85E80839081981761F0CD
:100950002196011584E0180720F49FEFE91AF90A9F
:1009600003C08FEF881A980A0F5F1F4F011598E098
:10097000190731F7C6010E94D505612C712CA12CF5
:10098000B12CC12CD12C00E010E00E94D005F30165
:10099000F85E9081981769F00F5F1F4F611484E033
:1009A000780620F49FEFA91AB90A03C08FEFC81A7E
:1009B000D80A9FEF691A790A611488E0780629F746
:1009C000BF92AF92DF92CF921F930F93FF92EF925D
:1009D0009F928F92DF93CF9383E094E09F938F93C6
:1009E0000E942B068DB79EB70E960FB6F8949EBF49
:1009F0000FBE8DBFC8018C0F9D1FDF91CF911F913E
:100A00000F91FF90EF90DF90CF90BF90AF909F90AD
:100A10008F907F906F900895209110013091110177
:100A2000820F931F60911401709115014091120182
:100A300050911301460F571F4817590738F09093EC
:100A4000110180931001822F932F089580E090E090
:100A5000089597FB072E16F4009407D077FD09D070
:100A60000E946E0507FC05D03EF4909581959F4F3E
:100A70000895709561957F4F0895A1E21A2EAA1BE3
:100A8000BB1BFD010DC0AA1FBB1FEE1FFF1FA2173E
:100A9000B307E407F50720F0A21BB30BE40BF50B3B
:100AA000661F771F881F991F1A9469F760957095C4
:100AB000809590959B01AC01BD01CF010895A29F47
:100AC000B001B39FC001A39F700D811D1124911D22
:100AD000B29F700D811D1124911D0895AA1BBB1B8F
:100AE00051E107C0AA1FBB1FA617B70710F0A61B2E
:100AF000B70B881F991F5A95A9F780959095BC014F
:100B0000CD0108958F929F92AF92BF92CF92DF92C4
:100B1000EF92FF92CF93DF93EC01688179818A8114
:100B20009B81611571058105910521F464E279EDE0
:100B30008BE597E02DE133EF41E050E00E94350A6C
:100B400049015A019B01AC01A7EAB1E40E94540A91
:100B50006B017C01ACEEB4EFA50194010E94620A26
:100B6000C60ED71EE81EF91EF7FE06C081E0C81AA1
:100B7000D108E10880E8F80AC882D982EA82FB82BB
:100B8000C6019F77DF91CF91FF90EF90DF90CF90DC
:100B9000BF90AF909F908F9008950E948205089516
:100BA00080E091E00E9482050895A0E0B0E080938B
:100BB000000190930101A0930201B09303010895F5
:100BC0000F931F93CF93DF93EC018B01009731F4C8
:100BD0006115710519F480E090E038C06EE070E0B6
:100BE00081E090E00E944508FC010097A1F380E8B5
:100BF00083830115110571F01387028781E88383D0
:100C000080918E0490918F04892B21F4F0938F04AE
:100C1000E0938E042097C9F0D187C08783818260DA
:100C200083838091900490919104892B71F4F093C7
:100C30009104E09390048091920490919304892B05
:100C400021F4F0939304E0939204CF01DF91CF91CC
:100C50001F910F910895A0E0B0E0E1E3F6E00C945D
:100C6000770AFE01359661917191AF0180919004F0
:100C7000909191040E947306E2E00C94930A6091B3
:100C80009004709191040E94A50908950F931F93F9
:100C9000CF93DF93E0919004F0919104238121FFA1
:100CA0001BC0EC0100E010E089916091900470910C
:100CB0009104DB011896ED91FC911997882331F08E
:100CC0000995892B89F30FEF1FEFEECF8AE0099585
:100CD000892B11F4C80102C08FEF9FEFDF91CF91F4
:100CE0001F910F910895ACE0B0E0E9E7F6E00C94B5
:100CF000670A7C016B018A01FC01178216828381DD
:100D000081FFBDC1CE0101964C01F7019381F6012F
:100D100093FD859193FF81916F01882309F4ABC105
:100D2000853239F493FD859193FF81916F0185326E
:100D300029F4B70190E00E94A509E7CF512C312C8E
:100D400020E02032A0F48B3269F030F4803259F088
:100D5000833269F420612CC08D3239F0803339F44C
:100D6000216026C02260246023C0286021C027FDA6
:100D700027C030ED380F3A3078F426FF06C0FAE08D
:100D80005F9E300D1124532E13C08AE0389E300D23
:100D90001124332E20620CC08E3221F426FD6BC14B
:100DA000206406C08C3611F4206802C0883641F4F5
:100DB000F60193FD859193FF81916F018111C1CF60
:100DC000982F9F7D9554933028F40C5F1F4FFFE3BD
:100DD000F9830DC0833631F0833771F0833509F024
:100DE0005BC022C0F801808189830E5F1F4F4424BD
:100DF0004394512C540115C03801F2E06F0E711C60
:100E0000F801A080B18026FF03C0652D70E002C00C
:100E10006FEF7FEFC5012C870E949A092C01830197
:100E20002C852F77222E17C03801F2E06F0E711C2F
:100E3000F801A080B18026FF03C0652D70E002C0DC
:100E40006FEF7FEFC5012C870E9488092C012C854C
:100E50002068222E830123FC1BC0832D90E04816BE
:100E60005906B0F4B70180E290E00E94A5093A94D7
:100E7000F4CFF50127FC859127FE81915F01B70131
:100E800090E00E94A50931103A94F1E04F1A510800
:100E90004114510471F7E5C0843611F0893639F5F3
:100EA000F80127FF07C060817181828193810C5F07
:100EB0001F4F08C060817181882777FD8095982F2A
:100EC0000E5F1F4F2F76B22E97FF09C09095809529
:100ED000709561957F4F8F4F9F4F2068B22E2AE00B
:100EE00030E0A4010E94D709A82EA81844C0853775
:100EF00029F42F7EB22E2AE030E025C0F22FF97FB0
:100F0000BF2E8F36C1F018F4883579F0B4C0803721
:100F100019F0883721F0AFC02F2F2061B22EB4FE18
:100F20000DC08B2D8460B82E09C024FF0AC09F2FEE
:100F30009660B92E06C028E030E005C020E130E020
:100F400002C020E132E0F801B7FE07C06081718184
:100F5000828193810C5F1F4F06C06081718180E0A8
:100F600090E00E5F1F4FA4010E94D709A82EA81879
:100F7000FB2DFF77BF2EB6FE0BC02B2D2E7FA514A9
:100F800050F4B4FE0AC0B2FC08C02B2D2E7E05C062
:100F90007A2C2B2D03C07A2C01C0752C24FF0DC098
:100FA000FE01EA0DF11D8081803311F4297E09C014
:100FB00022FF06C07394739404C0822F867809F0D0
:100FC000739423FD13C020FF06C05A2C731418F429
:100FD000530C5718732C731468F4B70180E290E037
:100FE0002C870E94A50973942C85F5CF731410F4F7
:100FF000371801C0312C24FF12C0B70180E390E004
:101000002C870E94A5092C8522FF17C021FF03C051
:1010100088E590E002C088E790E0B7010CC0822F1D
:10102000867859F021FD02C080E201C08BE227FDE5
:101030008DE2B70190E00E94A509A51438F4B7012C
:1010400080E390E00E94A5095A94F7CFAA94F40196
:10105000EA0DF11D8081B70190E00E94A509A11061
:10106000F5CF332009F451CEB70180E290E00E9421
:10107000A5093A94F6CFF7018681978102C08FEFD8
:101080009FEF2C96E2E10C94830A0F931F93CF936A
:10109000DF93869F8001879F100D969F100D11246E
:1010A000C8010E946108EC01009729F0A80160E0E6
:1010B00070E00E949309CE01DF91CF911F910F91B3
:1010C0000895CF93DF938230910510F482E090E091
:1010D000E0919604F091970420E030E0A0E0B0E0C9
:1010E000309739F14081518148175907B8F04817B6
:1010F000590771F482819381109729F013969C937C
:101100008E9312972CC0909397048093960427C0D7
:101110002115310531F04217530718F0A901DB0101
:1011200001C0EF019A01BD01DF010280F381E02DD2
:10113000D7CF21153105F9F0281B390B24303105A3
:1011400080F48A819B816115710521F0FB019383F5
:10115000828304C09093970480939604FE01329694
:1011600044C0FE01E20FF31F819391932250310995
:10117000398328833AC02091940430919504232B1D
:1011800041F420910601309107013093950420939A
:10119000940420910401309105012115310541F499
:1011A0002DB73EB74091080150910901241B350B22
:1011B000E0919404F0919504E217F307A0F42E1B3C
:1011C0003F0B2817390778F0AC014E5F5F4F2417AB
:1011D000350748F04E0F5F1F5093950440939404D9
:1011E0008193919302C0E0E0F0E0CF01DF91CF91D5
:1011F0000895CF93DF93009709F487C0FC013297DD
:1012000013821282C0919604D0919704209781F4A2
:1012100020813181280F391F809194049091950489
:101220008217930779F5F0939504E09394046DC0C9
:10123000DE0120E030E0AE17BF0750F412964D916A
:101240005C9113979D014115510509F1DA01F3CF26
:10125000B383A28340815181840F951F8A179B0716
:1012600071F48D919C911197840F951F0296918333
:10127000808312968D919C9113979383828321157D
:10128000310529F4F0939704E09396043EC0D90108
:101290001396FC93EE9312974D915D91A40FB51F99
:1012A000EA17FB0779F480819181840F951F0296DC
:1012B000D90111969C938E938281938113969C936E
:1012C0008E931297E0E0F0E08A819B81009719F0FD
:1012D000FE01EC01F9CFCE01029628813981820FFF
:1012E000931F20919404309195042817390769F4CD
:1012F000309729F4109297041092960402C013823A
:101300001282D0939504C0939404DF91CF910895F5
:10131000FC010590615070400110D8F780959095C0
:101320008E0F9F1F0895DC0101C06D934150504006
:10133000E0F70895FC016150704001900110D8F76A
:10134000809590958E0F9F1F08950F931F93CF93B5
:10135000DF93182F092FEB018B8181FD03C08FEFE5
:101360009FEF20C082FF10C04E815F812C813D81A4
:10137000421753077CF4E881F9819F012F5F3F4FAB
:1013800039832883108306C0E885F985812F099564
:10139000892B29F72E813F812F5F3F4F3F832E837B
:1013A000812F902FDF91CF911F910F910895FA0116
:1013B000AA27283051F1203181F1E8946F936E7F94
:1013C0006E5F7F4F8F4F9F4FAF4FB1E03ED0B4E085
:1013D0003CD0670F781F891F9A1FA11D680F791FC6
:1013E0008A1F911DA11D6A0F711D811D911DA11DD7
:1013F00020D009F468943F912AE0269F11243019E7
:10140000305D3193DEF6CF010895462F4770405D81
:101410004193B3E00FD0C9F7F6CF462F4F70405D30
:101420004A3318F0495D31FD4052419302D0A9F78B
:10143000EACFB4E0A6959795879577956795BA9585
:10144000C9F700976105710508959B01AC010A2E4B
:1014500006945795479537952795BA95C9F7620F22
:10146000731F841F951FA01D0895052E97FB1EF462
:1014700000940E944C0A57FD07D00E943D0507FCCE
:1014800003D04EF40C944C0A50954095309521951C
:101490003F4F4F4F5F4F08959095809570956195A0
:1014A0007F4F8F4F9F4F08950E945F05A59F900D1E
:1014B000B49F900DA49F800D911D11240895B7FF36
:1014C0000C94540A0E94540A821B930B08952F9285
:1014D0003F924F925F926F927F928F929F92AF92C4
:1014E000BF92CF92DF92EF92FF920F931F93CF9311
:1014F000DF93CDB7DEB7CA1BDB0B0FB6F894DEBFA8
:101500000FBECDBF09942A88398848885F846E84CD
:101510007D848C849B84AA84B984C884DF80EE8017
:10152000FD800C811B81AA81B981CE0FD11D0FB620
:10153000F894DEBF0FBECDBFED010895F894FFCF44
:1015400001000000000098042000001400120010A8
:10155000001800040018570159015B015D015F018B
:10156000580959094C53095253094C42095242092E
:10157000444952095809590025336409253364093F
:1015800000253164092531640900257309002534DB
:1015900064092534640D004C00520055004400439A
:1015A0000052756E6E696E67204144432074657306
:1015B000742E2E2E004144432072756E6E696E6744
:1015C00020746573742073756D3A2025640A004E8B
:1015D000756D626572206F6620636F6E73657175DD
:1015E000656E7420657175616C2076616C756573CC
:1015F0003A2025640A0041444320746573742066D0
:1016000061696C65642100414443207465737420F2
:101610007061737365642E00496E697469616C69E9
:101620007A696E67204144432E2E2E0041444320A8
:10163000696E697469616C697A65642E005B215D0D
:101640002041444320696E697469616C697A6174F0
:10165000696F6E206661696C6564210078206F6631
:10166000667365743A2025640A00782064656164B5
:101670007A6F6E653A2025640A0079206F6666737A
:1016800065743A2025640A007920646561647A6F84
:101690006E653A2025640A0043616C696272617468
:1016A000696E67206A6F79737469636B2E2E2E00E2
:1016B0005820617869732063616C69627261746932
:1016C0006F6E206661696C65642120284F666673C1
:1016D00065742B646561647A6F6E65206F75742024
:1016E0006F6620626F756E64732900592061786996
:1016F000732063616C6962726174696F6E206661E8
:10170000696C65642120284F66667365742B646577
:1017100061647A6F6E65206F7574206F6620626FEA
:10172000756E647329005B215D204A6F797374695B
:10173000636B2063616C6962726174696F6E2066AD
:1017400061696C656421205265747279696E672ED7
:10175000004A6F79737469636B2063616C696272AC
:10176000617465642E00726561645F736C696465A1
:10177000722063616C6C6564207769746820696E9F
:1017800076616C6964206465766963650072656181
:10179000645F746F7563685F627574746F6E2063E5
:1017A000616C6C6564207769746820696E76616C21
:1017B00069642064657669636500496E697469616E
:1017C0006C697A696E672065787465726E616C20E9
:1017D0006D656D6F72792E2E2E0045787465726E70
:1017E000616C206D656D6F727920696E69746961D5
:1017F0006C697A65642E005B215D204578746572A2
:101800006E616C206D656D6F727920696E697469A7
:10181000616C697A6174696F6E206661696C656478
:1018200021005374617274696E67205352414D20D8
:10183000746573742E2E2E2025642062797465736E
:10184000200A005352414D207465737420636F6DFC
:10185000706C6574656420776974680A202564205B
:101860006572726F727320696E2077726974652079
:101870007068617365202825642075707065722C0E
:10188000202564206C6F7765722920616E640A20C0
:101890002564206572726F727320696E20726574A0
:1018A00072696576616C20706861736520282564B3
:1018B0002075707065722C202564206C6F776572BE
:0418C000290A0000F1
:00000001FF
