S0140000496E697469616C52533233322E737265630A
S11300000C9438000C9442000C9442000C9442006E
S11300100C9442000C9442000C9442000C94420054
S11300200C9442000C9442000C9442000C94420044
S11300300C9442000C9442000C9442000C94420034
S11300400C9442000C9442000C9442000C94420024
S11300500C9442000C9442000C9442000C94420014
S11300600C9442000C9442000C9442000C94420004
S113007011241FBECFEFD4E0DEBFCDBF0E944400E9
S11300800C945A000C940000D09AD19AD89AD9981A
S113009021E092E03FE34DE083E031504040804076
S11300A0E1F700C000008BB382278BBB8BB3892799
S10B00B08BBBF0CFF894FFCFE5
S9030000FC
