S0140000496E697469616C52533233322E737265630A
S11300000C9438000C9442000C9442000C9442006E
S11300100C9442000C9442000C9442000C94420054
S11300200C9442000C9442000C9442000C94420044
S11300300C9442000C9442000C9442000C94420034
S11300400C9442000C9442000C9442000C94420024
S11300500C9442000C9442000C9442000C94420014
S11300600C9442000C9442000C9442000C94420004
S113007011241FBECFEFD4E0DEBFCDBF0E944400E9
S11300800C947D000C94000060E07BE480E893EF26
S11300900E947100D09AD19AD89AD998C0E0D0E041
S11300A0EE24E3946894FF24F1F800E010E004C027
S11300B08CEF0E9479002196C630D105CCF32FE74E
S11300C08DEF9EE0215080409040E1F700C0000099
S11300D08BB38E258BBB8BB38F258BBBC02FD12FBE
S11300E0EBCF10BC8FE089B988E18AB98EE080BD7E
S11100F008955599FECF8CB90895F894FFCF6A
S9030000FC
