S0140000496E697469616C52533233322E737265630A
S11300000C9438000C9455000C9455000C94550035
S11300100C9455000C9455000C9455000C94550008
S11300200C9455000C9455000C9455000C945500F8
S11300300C9455000C9455000C9455000C945500E8
S11300400C9455000C9455000C9455000C945500D8
S11300500C9455000C9455000C9455000C945500C8
S11300600C9455000C9455000C9455000C945500B8
S113007011241FBECFEFD4E0DEBFCDBF11E0A0E05E
S1130080B1E0E0EAF5E002C005900D92A631B107B7
S1130090D9F721E0A6E1B1E001C01D92A032B20778
S11300A0E1F70E9457000C94CE020C940000CF9309
S11300B0DF93CDB7DEB729970FB6F894DEBF0FBE36
S11300C0CDBF20EB34E040E050E060E873EF8AE419
S11300D090E00E94AD00D09AD19AD89AD99889E03C
S11300E0ECE0F1E0DE01119601900D928A95E1F7C2
S11300F000E010E0CE0101967C01AA24A394689448
S1130100BB24B1F8C12CD12C08C0F701E00FF11FBA
S113011080810E94E1000F5F1F4FF70101900020D2
S1130120E9F73197EE19FF090E171F0770F386E000
S113013091E00E9457019FEB2EE787E09150204009
S11301408040E1F700C000008BB38A258BBB8BB3E2
S11301508B258BBB0C2D1D2DE0CF0F931F93890195
S11301609A01000F111F221F331F000F111F221F9E
S1130170331FA9019801220F331F441F551F220F5B
S1130180331F441F551F0E94EA00DA01C901019779
S1130190A109B109492F5A2F6B2F772740BD89B97F
S11301A088E18AB98EE880BD60E070E085EE90E079
S11301B00E940C0190931901809318011F910F91D3
S11301C008955D9BFECF8CB908950E94E10080E004
S11301D090E00895A1E21A2EAA1BBB1BFD010DC0DD
S11301E0AA1FBB1FEE1FFF1FA217B307E407F507E3
S11301F020F0A21BB30BE40BF50B661F771F881FBF
S1130200991F1A9469F760957095809590959B0154
S1130210AC01BD01CF0108950F931F93CF93DF93DA
S1130220EC018B01009731F46115710519F480E03C
S113023090E038C06EE070E081E090E00E948401BC
S1130240FC010097A1F380E883830115110571F087
S11302501387028781E883838091160190911701A7
S1130260892B21F4F0931701E09316012097C9F02C
S1130270D187C087838182608383809118019091A4
S11302801901892B71F4F0931901E09318018091FD
S11302901A0190911B01892B21F4F0931B01E09327
S11302A01A01CF01DF91CF911F910F9108950F9300
S11302B01F93CF93DF93E0911801F09119012381EB
S11302C021FF1BC0EC0100E010E08991609118014E
S11302D070911901DB011896ED91FC91199788230F
S11302E031F00995892B89F30FEF1FEFEECF8AE0E8
S11302F00995892B11F4C80102C08FEF9FEFDF919C
S1130300CF911F910F9108950F931F93CF93DF9374
S1130310869F8001879F100D969F100D1124C801A0
S11303200E94A001EC01009729F0A80160E070E0B0
S11303300E94C702CE01DF91CF911F910F910895C2
S1130340CF93DF938230910510F482E090E0E09146
S11303501E01F0911F0120E030E0A0E0B0E03097F2
S113036039F14081518148175907B8F048175907A6
S113037071F482819381109729F013969C938E9344
S113038012972CC090931F0180931E0127C0211542
S1130390310531F04217530718F0A901DB0101C000
S11303A0EF019A01BD01DF010280F381E02DD7CF77
S11303B021153105F9F0281B390B2430310580F45F
S11303C08A819B816115710521F0FB0193838283EE
S11303D004C090931F0180931E01FE01329644C015
S11303E0FE01E20FF31F8193919322503109398367
S11303F028833AC020911C0130911D01232B41F424
S1130400209102013091030130931D0120931C01BE
S113041020910001309101012115310541F42DB7DE
S11304203EB74091040150910501241B350BE09126
S11304301C01F0911D01E217F307A0F42E1B3F0BE2
S11304402817390778F0AC014E5F5F4F2417350742
S113045048F04E0F5F1F50931D0140931C01819380
S1130460919302C0E0E0F0E0CF01DF91CF910895D5
S1130470CF93DF93009709F487C0FC01329713826E
S11304801282C0911E01D0911F01209781F4208116
S11304903181280F391F80911C0190911D01821711
S11304A0930779F5F0931D01E0931C016DC0DE0103
S11304B020E030E0AE17BF0750F412964D915C91E6
S11304C013979D014115510509F1DA01F3CFB38367
S11304D0A28340815181840F951F8A179B0771F471
S11304E08D919C911197840F951F0296918380831F
S11304F012968D919C9113979383828321153105D4
S113050029F4F0931F01E0931E013EC0D901139614
S1130510FC93EE9312974D915D91A40FB51FEA17CA
S1130520FB0779F480819181840F951F0296D9018C
S113053011969C938E938281938113969C938E93B0
S11305401297E0E0F0E08A819B81009719F0FE01A8
S1130550EC01F9CFCE01029628813981820F931FD5
S113056020911C0130911D012817390769F4309737
S113057029F410921F0110921E0102C013821282EC
S1130580D0931D01C0931C01DF91CF910895DC012C
S113059001C06D9341505040E0F70895F894FFCFA7
S11305A00000200120007374756666006865697335
S10905B0616E6E0A0000FA
S9030000FC
